:020000040800F2
:2000000068200020010100085B470008CD3100085947000885160008FD63000800000000CB
:20002000000000000000000000000000F14D0008C121000800000000E9480008255A0008D0
:200040001B0100081B0100081B0100081B0100081B0100081B0100081B0100081B01000880
:200060001B0100081B0100081B0100081B010008011E00080D1F00081B0100081B0100084D
:200080001B0100081B0100081B0100081B010008916300081B0100081B0100081B01000868
:2000A0001B010008715B00081B0100081B0100081B0100081B0100081B0100081B01000870
:2000C000D13100081B0100081B0100081B0100081B0100081B0100081B0100081B0100081A
:2000E0001B0100081B0100081B010008DFF80CD000F014FB004800472D6400086820002012
:200100000648804706480047FEE7FEE7FEE7FEE7FEE7FEE7FEE7FEE7FEE7FEE7815A000860
:20012000ED00000840EA01039B0703D009E008C9121F08C0042AFAD203E011F8013B00F85A
:20014000013B521EF9D27047D2B201E000F8012B491EFBD270470022F6E710B513460A4690
:2001600004461946FFF7F0FF204610BDF0B480EA0102D40F4200B2EB410F02D20246084631
:2001800011464A0042D0C30DDDB2C1F3C752AD1A202D35DAC1F3160141F4000204B1524212
:2001A000C5F1200602FA06F12A411044B3EBD05F23D0C4B1012DA0EBC35009DCF0BC4FF0E0
:2001C000004202EAC352DBB200F5000000F01BBA400000F1807000EBC350A0F1807040EACB
:2001E000D170490009E0490841EAC071A0EBC35000F50000400800EBC350F0BC00F0FAB9B7
:200200006142012202EB4101001BF6E7F0BC704781F00041AAE780F00040A7E780EA0102A0
:2002200010B502F00043400022D04A001FD0010E01EB1261C0F35600C2F3560240F40000A1
:2002400042F40002A0FB022000047F39140400D0401C50EA124001D44000491EC2B20C061B
:2002600004EBD010401C4008802A02D003E0002010BD20F00100002900DA0020184310BD63
:2002800030B480EA010202F0004530F0004221F0004013D090B1C30DD40DC2F31601C0F3CF
:2002A0001600E41A41F4000140F400027D34914201D3641C00E04900002C02DA30BC0020A9
:2002C00070474FF400000023914201D3891A034340084FEA4101F7D151B1914202D14FF0FF
:2002E000004105E002D24FF0010101E06FF0010103EBC450284430BC00F07CB92DE9FE4F9F
:2003000081EA030404F0004421F0004100944FF0000B23F0004350EA01045ED052EA0304FD
:200320005BD0C3F30A54C1F30A552C44A4F2F3340194A0FB0254C1F3130141F48011C3F374
:20034000130343F4801301FB024400FB034E840A970A44EA815447EA8357A4FB076802954D
:200360008D0A05FB07854FEA932C04FB0C542705029D4FEA065847EA1637B5EB08056EEB1D
:20038000070C870E920E47EA811742EA8312A7FB0201B6EB0B0164EB00042B0D43EA0C3342
:2003A0005E1844EB1C50DA465146E7FB0201C5F313044FEA0B3343EA14534FEA0432019CAA
:2003C00043EA0603A4F10C040294009CCDE900B400F056F903B0BDE8F08F00200146F9E749
:2003E0002DE9F04D81EA030404F0004B21F0004514464FF0000A23F0004150EA050220D07B
:2004000054EA01021DD0C5F30A570246C5F31303C1F31300C1F30A5640F4801543F4801311
:20042000A7EB0608101BD64608F2FD3873EB050002D308F1010801E092185B41B8F1000F8D
:2004400003DA00200146BDE8F08D00204FF48011064684460EE0171B73EB050705D3121B9D
:2004600063EB050306434CEA010C49084FEA300092185B4150EA0107EDD152EA030012D079
:2004800082EA040083EA0501084305D0101BAB4106D20122002306E000224FF0004302E0B8
:2004A0006FF0010253101AEB06004CEB085110EB0A0041EB0B01BDE8F04D00F0D2B800281B
:2004C00001DBC0F10040002901DBC1F10041814201D80120704700207047002801DBC0F157
:2004E0000040002901DBC1F10041814201D30120704700207047C10F80EAE0700844CA07D7
:200500009623002100F07FB896230022114600F07AB800F0004220F00040C10DC0F316006D
:2005200040F400007F2901DA00207047962903DCC1F19601C84001E096398840002AF4D0D8
:2005400040427047C1F30A5210B5C1F3130140F2FF3341F480119A4201DA002010BD40F2C5
:2005600033439A42A2F2334203DC524200F032F810BD904010BD00F0004230F000400AD0BD
:20058000C10D01F56071C0F3160042EA0151C20840071143704700200146704701F0004311
:2005A00030B421F0004150EA010206D00A0DA2F56072C1F31301002A02DC30BC00207047DF
:2005C000440F44EAC104C100E01830BC00EBC25000F010B8202A04DB203A21FA02F00021CA
:2005E000704721FA02F3D040C2F1200291400843194670470029A8BF7047401C490008BF6A
:2006000020F00100704710B4B0FA80FC00FA0CF050EA010404BF10BC704749B1CCF12004D2
:2006200021FA04F411FA0CF118BF012121430843A3EB0C01CB1D4FEA00614FEA102042BF70
:20064000002010BC704700EBC35010440029A4BF10BC7047401C490008BF20F0010010BC4D
:20066000704710B5141E73F1000408DA401C41F1000192185B411A4301D120F0010010BDA0
:200680002DE9F04D92469B4611B1B1FA81F202E0B0FA80F22032904600F052F804460F466F
:2006A00040EA0A0041EA0B0153465A46084313D0114653EA010019D0C8F140025046FFF763
:2006C00089FF05460E4650465946424600F038F8084305D0012004E020463946BDE8F08DEA
:2006E0000020054346EAE0762C4337430A986305E40AA0EB08000022FD0A44EA47540A306C
:2007000002D500200146E9E7010510196941DDE9084500196941BDE8F04DA2E7064C074D0B
:2007200006E0E06840F0010394E8070098471034AC42F6D3FFF7DEFC386B0008586B0008B4
:20074000202A04DB203A00FA02F1002070479140C2F1200320FA03F3194390407047420076
:2007600005D0C0F3C7525242914201DC0020704700EBC150704770B58C1810F8015B15F0D8
:20078000070301D110F8013B2A1106D110F8012B03E010F8016B01F8016B5B1EF9D12B07C2
:2007A00005D40023521E0DD401F8013BFAE710F8013BCB1A921C03E013F8015B01F8015B60
:2007C000521EF9D5A142D8D3002070BD8268002942F0010308BF22F0010383607047000040
:2007E0002DE9F047AF4E3078002851D029482A4DDFF8A88000244FF0000A814645E0E0B2EC
:20080000082108EB0010E860284601F076FC284601212F4601F0BCFB484601214D46FFF7AD
:20082000D5FF4846012100F0A9F8022001F028FC0028FAD0022001F09FFB48460021FFF728
:20084000C5FF384600213D4601F0A2FB0134E0B2082818D30020414612E00023002202E082
:20086000CC5A10332244802BFAD114B206EB400302310130C4F30274224412B2D2085A80CA
:200880000828EAD100240AF1010ABAF1070FB6D9BDE8F0870024014008000240E01B00200D
:2008A0008268002942F4807308BF22F48073836070478068C0F3800070478068C0F3C00065
:2008C0007047000042680F4B1A400B681A430B7942EA03220C4B4260826802EA030CD1E9C6
:2008E000023242EA0C021A434B7942EA43028260C26A097C013922F47002C9B242EA0151AA
:20090000C1627047FFFEF0FFFDF7F1FF10B501EB410C092988BFACF11E0C092903FA0CFEB6
:200920004FF0070303FA0CFC4FF0100388BF0C23062AC45824EA0C0444EA0E04C45003D808
:2009400034306FF0040307E00C2A87BF2C306FF0400330306FF0220302EB82021A441F2377
:20096000914003FA02F2036823EA02021143016010BD816841F008018160704782680029E9
:2009800042F4A00308BF22F4A00383607047816841F0040181607047033010F811204900F8
:2009A0000131405C40EA022000B270471CB504464EF2C3300DF1060201210223ADF806006E
:2009C000A07802F0D7FD00210028ADF8061000D01CBDA07800910DF106020121022302F0A4
:2009E000E9FC1CBD1CB5044680780022022304EB41010092CA1C002102F0DCFC24210028DE
:200A000008BF202162580132625002B010BDBCB50546E3200C460DF1050202238DF80600EA
:200A2000C32040EA011001218DF80500A87802F0A1FD6C7702B0B0BDB0F80500C0BA70475C
:200A400070471CB504468078012104230091E21C0C2102F0AFFC2421002808BF20216258FB
:200A60000132625002B010BD70B51546044639B10C4800F12202084611461022FFF752FBDB
:200A800075B1084E2846102206F11201FFF74AFB06F1320120461022BDE87040FFF742BBEB
:200AA00070BD00BF200500203F498A788270098801807047F0B53C4D0021A970298090F827
:200AC000C012002900F06A8000F1440200230121002408E016781E32F6071EBF01FA04F60C
:200AE00033432B700134082CF4D190F9B6224FF0000C4FF0000E0023802B08BFF0BD9342A7
:200B00002FD090F9B7128B422BD090F9B8128B4227D090F9B9128B4223D090F9BA128B426F
:200B20001FD000EB430191F82F4104F01F04063C0F2C18D8DFE804F0080808080B0B0B0B13
:200B40000E0E0E0E111111114EF0010E07E04EF0020E04E04EF0040E01E04EF0080E85F8B1
:200B600002E00133C8E70024072C0ED8E6B2C6EB061600EB460696F95470BB42F1D096F937
:200B800056600134B342EFD1EBE791F92E110029E7DB0CF1010C85F801C0E2E70F20A870D7
:200BA00048F2FF002880F0BDB40800202DE9F04F91B004460120012103F0D6FE4FF404702A
:200BC000012103F0E9FEC74D0020FF2140F2011204E02B1829542830A3F81B20B0F5A07FEA
:200BE000F7D1DFF8FC9904F13E0804F15207002640F6FE0A02E1A01990F820000538122819
:200C000000F2FB80DFE810F01300F900F900F900F9001900F9002B003D004F0061007A0005
:200C2000F900F900F900F900F900F900940099F80000013089F80000DFE00020072800F207
:200C4000DC80C1B20130C1EB011104EB410191F952108E42F2D199F80100012246E000202B
:200C6000072800F2CA80C1B20130C1EB011104EB410191F952108E42F2D199F80100022241
:200C800034E00020072800F2B880C1B20130C1EB011104EB410191F952108E42F2D199F824
:200CA0000100032222E00020072800F2A680C1B20130C1EB011104EB410191F952108E4256
:200CC000F2D199F80100042210E00020072800F29480C1B20130C1EB011104EB410191F937
:200CE00052108E42F2D199F80100052200EB800105F8316005EBC1014A707BE00020072836
:200D00007BD8C1B20130C1EB011104EB410191F952108E42F3D199F80100062100EB800049
:200D200005F8306005EBC000417003F021FB5FE04FF0480B1EE0394601E01E3101300728D8
:200D400016D80A78FE2AF8D18A795A45F5D199F8010000EB800025F830A005EBC00080F8B8
:200D600002B0FFF723FE99F80100013089F801000BF1010B0020BBF14C0FDCD3414601E01F
:200D80001E310130072838D80A7DFE2AF8D18A7E362AF5D199F8010040F6FE1200EB8000AB
:200DA00025F8302005EBC00036228270B1F9002012F5004F01D1002207E04B4BC2EB02325A
:200DC0001A444FF6FE7392FBF3F2B1F9041011F5004F01D1002307E0434BC1EB01311944D5
:200DE0004FF6FE7391FBF3F391B29AB2FFF728FE99F80100013089F8010001361E2E7FF4E5
:200E0000FAAE99F8000099F80110384D0144082903D90020A9F8000015E0A0B1002040F2C7
:200E200001110C90ADF834104FF46021CDE90E1008200CA98DF840002846FFF743FD2846CF
:200E40000121FFF72DFD1F200138FDD1284F203400260BE0A05D052807D1701C17F836104B
:200E60000623C2B22846FFF751FD0136082EF1D199F8000098B31F4C204601F095F809F1CF
:200E800002000821029005F14C00019000200390CDE90410802106914FF4807107914FF4FE
:200EA0008061CDE908104FF40051CDE90A1001A9204601F003F928460121FFF787FC2846AB
:200EC000FFF757FD2846FFF7F8FC0028FAD12846FFF75DFD2846FFF7ECFC0028FAD111B0BF
:200EE000BDE8F08F901A00200170FF070024014010030020080002402DE9F04F8FB0DFF840
:200F0000E846DFF8DCA60DF11C084FF0000B0390BBF1080F00F0E1820399CBEB0B1001EBDC
:200F20004006B14639F8502F99F9020099F80810C2F30312A9F112070497B0F1FF3F42DC72
:200F4000831C40D00130444640F02A820AEB4B0402F078F8DFF88C760BEB4B030194B4F946
:200F600012C0DFF8244A029607EB0317224697F80A8097F81AE097F82A5087F819E087F8AC
:200F8000098087F8295096F9545004EB051595F80AA087F80AA0BAF1000F96F9565004EB56
:200FA0000515AD7ABD7696F9554002EB0414A27A87F82A204DD0B8F1000F4ED1029EFF24F8
:200FC000DFF81CA65DE0039B034493F82030053B0B2B00F27D80DFE813F05F007B007B00F7
:200FE0007B007B00BC007B00D6000C000C000C000501B2460021CBB2072907D803EB8307A7
:20100000C6B2013114F83770B742F4D1554603EB8300114615F8536F04EBC00003F006F9E2
:20102000082E0FD329786FF0A9024446C90801FB0200002848F82B00C0F2F6805646DFF866
:20104000A0A540E05646DFF898A5444648F82B0093E1B8F1000F00F0F380DFF888651B0117
:201060007C68DFF87CA5F358029EC31A61EB0404C93B74F1000307ACC0F0E680C7E9000192
:20108000FF2496F85730C3EBC3335B00B3FBF4F307ACACEB030CD7E00AEB400096F853104E
:2010A0000022B0F90200B2EBD10F00F0FF80C9086FF0A902444601FB0200B0F1FF3F48F8F5
:2010C0002B0040F33081B0F5805F80F286805AE10230444640F06481DFF8985E0020C3B297
:2010E000072807D803EB8307013005EBC707BF788F42F4D103EB830005EBC00041780929A2
:2011000000F01F81082940F04B8135463746114615F8536FFFF740FC082EC0F0D3812978E7
:20112000D34AC90801FB0200B0F1FF3F44F82B0040F3C581B0F5004F3E46C0F2CA8147F652
:20114000FF71401AB0F5004F44F82B0080F22581BFE100210691CAB2072907D802EB8203FD
:20116000C7B2013114F83330BB42F4D102EB820006A904EBC005284604F022FF002800F026
:201180009980686A4CE00021CAB2072907D802EB8203C7B2013114F83330BB42F4D102EB51
:2011A000820035463746002115F8536F04EBC00003F03CF8082E3ED329786FF0A902444673
:2011C000C90801FB0200002848F82B00C0F2B080B0F5805F3E46C0F2D680A0F6FF7044F87A
:2011E0002B00CAE00021B246ADF81610CBB2072907D803EB8307C6B2013114F83770B742DC
:20120000F4D103EB830004EBC0050DF11600294603F080F800286AD0686A5646DFF8C0A3EC
:20122000444601306862BBE000F6FF7056469149DFF8ACA380E0444648F82B003E469CE038
:20124000DFF89CA3029E07AC1DB1BEF1000F03D10FE0BEF1000F17D057F8103F7E68C31AD0
:2012600061EB0606C93B76F100030CD3029EC7E9000196F85700FF21C0EBC0304000B0FBED
:20128000F1F0844400E0029E019912B14FF0000C09E0BCF5004F02DB47F6FF7C03E0CF4805
:2012A0008445D8BF8446A1F812C079E0444648F82B005FE0286A00210130286296F85300BD
:2012C000B1EBD00F00F0D180C008C0EB0010FFF712F901460698FEF79BFFC549054606906B
:2012E000FFF7FBF8002840F0C780C449CAE0286A0022564601302862BDF816009AF85310E4
:20130000B2EBD10F09D0B94AC90801FB020081B2B1F5004F08BF47F6FE70DFF8C4A2444644
:201320000AEB4B01C9E000F6FF7044F82B0021E000F6FF70A9493E46002844F82B0022DA90
:201340002BE03546374615F8536FFFF775FB082E0DD329786FF0A902C90801FB0200B0F124
:20136000FF3F44F82B003FF733AF00F6FF7044F82B003E46994900280FDBB0F5805F02DB0B
:2013800047F6FF7109E0C0EBC03040F6FF71400090FBF1F047F6FF71411A0AEB4B004182BF
:2013A0000AEB4B05B24697490BEB8B001AF8442F01EBC001B5F91200520901F0EFFB44F82B
:2013C0002B00B9F800100FB2C1F30622002F09DBB6F94050B6F94230049EB6F9001000921E
:2013E0002A4624E0B5F9121002EBC203411A48BF4942994212D2844901EB0B1102F0CBFABF
:2014000040B1B5F92200A046DFF8D4A144F82B00754C27E054F82B0099F80070B6F9402023
:20142000B6F94230049E0025B6F90010009505F047F844F82B0001B230460B2203F090FFFD
:2014400007F00F01013103F0BFFD44F82B00A046654C9AF80010DFF888A1890744BF4042EF
:2014600048F82B000BF1010B52E5069D0FE000BF56F5FFFF0180FFFF5E492846FFF71FF887
:2014800028B95D492846FEF771FE054606905C4928464446FEF7C2FE0690FFF73AF844F2CC
:2014A000506264230AEB4B0100FB032040F2252290FBF2F047F6FF72801A488270E747F608
:2014C000FF71084445493E46002844F82B00FFF664AF424901EB40015FE703984B4A002158
:2014E0004FF0007847F6FF7C0025002453309646102D04BF0FB0BDE8F08F10F80F7C17F058
:201500001C0F18D0C7F38207013F032F17D8DFE807F0021B2636067807AA52F8157006F0E9
:20152000070652F8266007EBD77706EBD676761006EB67072EE007AA52F8157039E007AA14
:2015400052F81570561829E0067807AA52F8157006F0070652F82660374467441AE00678D6
:2015600007AA52F8157006F0070652F8266007EBD7777F1006EBD676A7EB66070AE00678A5
:2015800007AA52F8157006F0070652F82660A7EB0C07BF1B02EB840642F81570B7F5004F48
:2015A00002DB47F6FF7703E00C4A974201DA0B4F37600AEB0506CEF88080734604310235D2
:2015C0000134778410F80F2C1E3002F0010252423A407286CEF800808AE700BF0180FFFF5A
:2015E00020050020B8080020901A002056F5FFFF000034C3000034430000B4C30000B443D7
:2016000000007A44D01800204014002000E100E02DE9F04F85B00DF1040914460091824687
:20162000002000224FF0000B4946FFF71DFABBF1080F04BF05B0BDE8F08F0099CBEB0B10B9
:20164000084490F83C12D1B100F22E2500F23B2600270CE05FFA80F839F91B002A4601F0BC
:201660005BFC0AF8080001372078013020703078F9B2814203D294F900000028EADA0BF118
:20168000010BD4E7FEE7000070B514460D4618B1BB498022FEF746FD45B1BA4E2846102287
:2016A00006F10C01FEF73EFD3078207070BD00BF2DE9FE4FB249044600F06AF90190B1484D
:2016C000DFF8C4B24FF0000A4FF0000801300290B6E000264FF4977500274FF0000931E0DF
:2016E000605780452BD160194078BAEB501F26D04FEA50190121A9F1010001FA00F0A14903
:201700000978084205D09E4810F808100BEB06000FE00BEB0600817A89B101214BF806A0FC
:20172000C0F804A05A46C172017A4172B1FA81F1490901720299FBB2224602F033FA023564
:2017400010360137B6F5006FCAD1B9F1000F5CD08B4D00264FF497794FF0000A51E08948D5
:2017600014F909100078884508BF002834D0884542D1C10704D004EB090149781F291BD999
:20178000810704D504EB090149781F2914D9410704D504EB090149781F290DD9010704D50F
:2017A00004EB090149781F2906D9C00624D504EB090040781F281FD80BEB0600817AD9B11A
:2017C00000214BF8061041600121C172017A4172B1FA81F1490908E004EB090252781F2A07
:2017E000C5D815F808100BEB0600017202995FFA8AF3224602F0D6F909F1020910360AF1D8
:20180000010AB6F5006FAAD116E05D4F00255E4610E004EB450090F92E01804508D117F834
:2018200008000299EBB222463072304602F0BAF910360135802DECD108F101084FF0000A12
:20184000019880457FF445AFDFF83CE14D48002100230EF10A05017017E0E21892F9B672D3
:20186000002F11DB02F2B62700262A460AE097F90000864204D11078984001434148017031
:2018800010320136802EF2D10133052BE5D13F4A00214FF000784FF0010C002647E094F9BD
:2018A000B602864241D094F9B70286423DD094F9B802864239D094F9B902864235D094F9C2
:2018C000BA02864231D004EB460090F82F0100F01F000638102828D30025072D0ED8E8B23D
:2018E000C0EB001004EB400797F9540086421DD097F9560001358642EFD117E0C2F8808009
:201900001346204ACFB201F007000CFA00F502EBD7073A7BAA430EEB0615AD7A05FA00F0F9
:2019200010431A463873C3F8008001310136802EB5D10020042808BFBDE8FE8F114901448D
:201940004A78531E0B2B0ED80622DFE803F01506080A0C0E0C10120C0C1404220CE005227C
:201960000AE0022208E0FF2206E0032204E0002202E0072200E001220A720130DAE700BF04
:20198000101A002090040020400A002000E100E07CB5054600200DF107060C468DF8070099
:2019A00008462946324602F095FE20462946324603F006FE204629463246FFF729FE204659
:2019C0002946324603F084FE9DF8070002B070BD40BA70472DE9F84F794C4B4E4B4F4E4D8F
:2019E000DFF830B1002043F63F784AF2A00948F60F7AADF80200606C3080000458BFBDE890
:201A0000F88F308810F00F00387028D054F82010ADF80210BDF90210B1F1FF3F0DDC54F8C8
:201A2000201040F68F72114044F820103849387801EB800050F8040C8047BDF80200000609
:201A4000D9D5387854F8201001EA0A0144F8201038780BEB800050F8040C8047CBE72068CB
:201A60002880288800F030006880288800F440502880206800EA080080EA09002060318804
:201A80002068C90612D5ADF80200BDF80200000513D4BDF90200B0F1FF3FACDC206840F6E1
:201AA0008F710840206002F091FE0DE048F60F710840206001F020FF06E0206840F68F71B6
:201AC0000840206003F0CAFA20684BF6BF7108402988C90448BF80F480502988890448BF38
:201AE00080F400506988C90648BF80F010006988890648BF80F0200048F28001084380B28C
:201B00002060BDE8F88F00BFCA0400209408002080030020640300200C05002070B54FF0F1
:201B2000000C4FF01D0E11E010F80C406240002408E056B28EEA42050134B6F1FF3FC8BFD4
:201B400055002A46072CF4D90CF1010C9C45EBD1D043C0B2401AB0FA80F0400970BD0000AA
:201B6000174951F82020520458BF704751F8202040F60F731A404CF280031A4341F8202026
:201B8000704700BF0E4951F82020520658BF704751F8202040F60F731A4048F2C0031A43D4
:201BA00041F82020704700BF054940F60F6351F820201A4048F280031A4341F82020704713
:201BC000005C0040B0B50C46054602F05FFD0849002009E015F8012B013C424080B2D2B211
:201BE00031F8122082EA1020002CF3D180B2B0BD4012002010B5804909688A8812B10224F3
:201C0000204610BD0A78062802F07F0208BF012A0AD0212AF3D103280DD00928EFD10B4847
:201C2000092202700A4A09E08878212805D02228E5D1084A02E0044A00E0074A00240020B5
:201C40004C828A619047DBE7811C00089E080020B51D0008951C0008751C0008014903F05E
:201C6000C1BD00BFFC000020014903F0BBBD00BF68020020014903F0B5BD00BF400100203E
:201C800008B1194870475C480121006801820020704700BF014903F0A5BD00BFFC010020B1
:201CA00055490968C978032984BF00207047024A02EBC10103F096BDCC020020084318BF3D
:201CC00002207047014602200B290BD14A4909680A7802F07F02212A18BF7047C878024955
:201CE00008600020704700BF9808002010B542480021006841812649C9794172002003F015
:201D0000A1F800204FF4007103F04AF90020102103F022F90020182103F0B6F8002058212E
:201D200003F002F90020FFF73FFF1A4890F82C10002003F0B5F8002003F0EAF801204FF422
:201D4000C061012403F02CF901204FF4807103F0EBF801204FF4827103F096F801200021E0
:201D600003F0EEF80120402103F09AF801204FF4405103F0B5F80120202103F0EDF8002094
:201D800003F066F81D4804600348047010BD00BF0401002070020020CB0200201648006874
:201DA000807A10B11548052101607047134804210160704708B1044870470F480221006897
:201DC00001820020704700BF9C0800207047704710B501F0CBF901F03BF901F0E1F901F05D
:201DE00053F9F14800240068847202F0A9FD04F0D1FA0248046010BDE4040020380A0020A0
:201E0000B0B5202000F046F9C0B1202000F0BAF89A48002100F0BCF8554801880906FCD4EF
:201E2000544C002507E094F90000002801DBE07E28B128340135072DF5D934E0B0BD607841
:201E4000013805282FD8DFE800F003070B161D2A204604F007F925E0204602F045FA21E0F5
:201E6000204602F041FA607FE0B920460121BDE8B04002F0EFB9204602F036FA607F02280F
:201E800006D90FE0204602F02FFA607F062809D80130C1B22046BDE8B04002F0DBB920467A
:201EA00002F0B6FB013518484FF0007101604FF0005101602F4905EB850001EBC000E9B2B3
:201EC0000FE090F90020002A09DBC27E3AB14278931E042B0BD3062A0ED0012A10D0283048
:201EE00001310729EDD9BDE8B04000F0EDBF0021BDE8B04002F0AEB9BDE8B04002F05EBBDA
:201F0000BDE8B04004F08EB800E100E080B54FF4007000F0BFF848B34FF4007000F032F8DA
:201F20004D48002100F034F8114801880906FCD4104800211C3007E010F91C2C002A01DB0B
:201F4000027822B1283001310729F5D90EE04FF4807120F8011C10F81B1C012906D11838C5
:201F600005210022BDE8804002F060BE80BD00BF08300140901A0020344A010F61F38A22D7
:201F800010607047314A010F61F38A221060704702684FF6FE7C002942F0010308BF02EA2D
:201FA0000C0303607047000001684FF6FE721140274A01600021016041608160C160234926
:201FC00090422FD0234A90421FD0234A904231D0224A904233D0224A904218D0214A90421E
:201FE00018D0214A904218D0204A904218D0204A904219D01F4A90421AD01F4A90421CD03F
:020000040800F2
:202000001E4A904218BF704710E001F580614FF4702016E04FF4700013E04FF0706010E0C3
:2020200001F580610F200CE001F58061F02008E001F580614FF4706003E001F580614FF4F8
:2020400070400A6810430860704700BF040002400800024058040240300002404400024007
:20206000580002406C00024080000240080402401C04024030040240440402401C00024048
:20208000094A010F61F38A221168084018BF0120704700BF044A010F61F38A22116808408F
:2020A00018BF0120704700BF00000240002A02680CBF22EA010111430160704770B5026808
:2020C00047F6F07301F120069A438B68D1E904CE8C691A4368CE1A43CB6942EA0C0242EA6D
:2020E0000E0222431A432A4332430260CA6842600A6882604968C16070BD4160704700004B
:202100002DE9F843DFF8A080D8F80060378ABFB9304610F8081F042912D126490A78012A3D
:202120003AD1254A254C136804EA43031A440023C2F8B4330B701D4930220A8004212FE0F2
:20214000B58ABD422C4688BF3C46B169204688478146002000F0D4FE01464846224604F0DD
:202160004FF90020214602F0EBFE308A3021AF42A0EB04003082708A204470820B48018054
:202180000B484FF4405101804FF0040188BF0221D8F80000083003E0044910220A800721CD
:2021A0000170BDE8F88300BFE40400200E0500200C050020DC040020505C0040FEFF010079
:2021C000704700000249086008680028FCD17047B00800207047000040B1124A002102E09A
:2021E0008B58435004318B08C22BF9D9704700BFB8B1F8B5044600F0B5FC0A4D284600F0B6
:2022000035FC094F002005E021584619304600F07FFCF019B0F5437FF6D3BDE8F84000F071
:2022200057BC704700FC00080404FFF710B5014491F82040074951F8302001EBC000818841
:20224000104600F0FFFDB0FA80F1022C18BF480910BD00BF9C0300200148012101707047ED
:20226000CB0200202DE9F047A0B000F0EBFEDFF8981500F5FA606C4608600120214604F092
:2022800097F89DF80000042843D0032800F09380022840F0B0829DF80160771E0C2F00F269
:2022A000AA82DFF86C452046FFF796FF0DF140083E2108F102052846FDF74DFF02200C2FC9
:2022C0008DF840008DF8416000F29182DFE817F00D00D701EA01FB010C0218021B021E020F
:2022E0002102260241025B0289022088A11C1422ADF8420008F10400FDF714FFD4F8160000
:20230000D4F81A10CDE9160108F1210004F12001F4E19DF801009DF8021041EA0026002E39
:2023200000F07480DFF8E484B8F80070002F00F06282D449C6EB06104FEA80098A4601EBF5
:20234000800500F00FFC0020B94507D3574616E0E119E819898800F0C1FBB81CC7B23B2F03
:20236000F6D900F0B5FB701C81B2002940F0758041E2A119A819898800F0B0FBB01CC6B253
:202380003C2EF6D300F0A4FBB8F80010BC78FD7807F13C00FFF716FC4FF2020100285CD03E
:2023A00044EA0522824258D1DFF8B806012101704FF4704151E09DF80180A8F101000C28AA
:2023C00000F20E81DFE810F00D005100630074008500920096009A009E00A400C000DD005A
:2023E0001901DFF82C64BDF80200211D14223080B01CFDF797FEDDE90601C6F81A10C6F8B9
:20240000160006F1200004F121016DE0BDF80410DFF8F803B1F5E04F01801CD800F0A2FBB9
:20242000984D002604E0701900F020FB06F58066B6F5E04FF7D1002006E0A11946EA0500A1
:20244000898800F04BFBB01CC6B23C2EF5D300F03FFB012101E04FF2010104208DF8400066
:20246000080A8DF842100321C3E0DFF8A4730220002609E0C5B2B8191E2261193E30FDF729
:2024800051FE1E3605F11E003C2EF3D1A8E0E04F0220002609E0C5B2B8191E2261197A30C3
:2024A000FDF740FE1E3605F11E003C2EF3D197E0D74F0220002609E0C5B2B8191E22611984
:2024C000B630FDF72FFE1E3605F11E003C2EF3D186E0CF4DA11C1E2205F1F200FDF722FEE4
:2024E00005F5887004F120011E2247E0C84800F597700AE0C64800F5B67006E0C44800F567
:20250000D57002E0C24800F5F470A11C3E2235E0BF4DDDF80200DDF806100F22C5F82A1207
:20252000C5F8260205F22E2004F10A01FDF7FAFD05F23D2004F119010F22FDF7F3FD05F514
:20254000137004F1280118E0B14DA11C0F2205F25B20FDF7E7FD05F26A2004F111010F22F3
:20256000FDF7E0FD05F2792004F120010F22FDF7D9FD05F5227004F12F010F22FDF7D2FD44
:2025800031E0A34EA11C0F2206F29720FDF7CAFD1120002107E0235806EB81020430013153
:2025A000C0B2C2F8A6320429F5D1BDF8210004F12B010A22A6F8B6029DF8230086F8B802BB
:2025C000BDF82400A6F8B902DDF82600C6F8BC029DF82A0086F8C00206F2C120FDF7A2FDE7
:2025E000B8F10C0F10D8032002218DF8400008F101008DF8410010A8FBE08548A11C3022F5
:2026000000F2DB20FDF78EFD814841F21052018821F00F01914205D141F214510180FFF78E
:20262000E7FD22E07B487C4C10AD2946109004F5806000F073FB4FF480502946ADF84000BF
:20264000204600F06BFB754F754D00260BE0E06880F48050E060386880F4005038602846F1
:20266000FFF7B8FD0136062EF1D36E486E4A016801F4E06111430160BFF34F8FFEE7022027
:2026800000250CE000700008C6B261191E2208EB06003E31FDF746FD1E3506F11E003C2D0F
:2026A000F2D1A4E0022000250AE0C6B261191E2208EB06007A31FDF735FD1E3506F11E003E
:2026C0003C2DF2D193E0022000250AE0C6B261191E2208EB0600B631FDF724FD1E3506F1B9
:2026E0001E003C2DF2D182E004F1F20128461E22FDF718FD08F1200004F588711E2274E0F0
:2027000004F5977107E004F5B67104E004F5D57101E004F5F47128463E2266E0D4F8260247
:20272000D4F82A120F22CDF84610CDF8420008F10A0004F22E21FDF7F5FC08F1190004F209
:202740003D210F22FDF7EEFC08F1280004F5137117E004F25B2128460F22FDF7E3FC08F19A
:20276000110004F26A210F22FDF7DCFC08F1200004F279210F22FDF7D5FC08F12F0004F50A
:2027800022710F2231E004F2972128460F22FDF7C9FC1121002008E004EB8002C9B2013007
:2027A000D2F8A62248F8012004310428F4D1B4F8B60204F2C1210A22ADF8610094F8B8024C
:2027C0008DF86300B4F8B902ADF86400D4F8BC02CDF8660094F8C0028DF86A0008F12B008B
:2027E00003E004F2DB2128463022FDF79BFC10A8402103F0F3FC01204FF4405102F070FB6C
:2028000020B0BDE8F08700BF14050020840500208805002000200110000C01400C100140A3
:20282000400D03000CED00E00400FA052DE9F04FA1B0844E88468146002106F10D000AE050
:2028400010F9012C002A04DB90F90020B2F1FF3F04DC103001310F29F2D9A7E001A94046A3
:20286000FFF796F84FF0000B00279BE006EB070A00F0E8FB9AF90C1000297CDB9AF90DE064
:20288000BEF1000F77DB9AF8083008EB410501AC9B008AF8083095F92E51655D1DB143F053
:2028A00001038AF8083008EB4E0501AC95F92E51655D1DB143F002038AF8083003F00305DD
:2028C000DBB2C3F38104A54203D19A088AF8082051E03246374E03F00F0416F904C01646C6
:2028E000BCF1000F47D0C3F301139D4243D0BCF1000F4FF0FF33C8BF01238AF80E30F45964
:20290000DAF80450041B6BEB0505D4F132047BEB050504D39AF80F50DBB2AB4219D1BCF1CE
:20292000000F4FF00103C8BF8E46BCF1000F09EB0E1293724FF0FF32F051CAF804B0C8BF67
:2029400001228AF80F20BAF80A206244AAF80A2011E0F051CAF804B06BB2BAF80A50012B58
:202960001D444FF00103AAF80A50ACBF09EB011209EB0E129372F359DAF80420C01AB8F860
:202980001A306BEB0202181A7BEB020009D209EB011080F80AB09AF90D0009EB001080F8CB
:2029A0000AB01037B7F5807F7FF460AF21B0BDE8F08F00BF500300202DE9F043DFF884E03E
:2029C00000214FF6FF7203E00EEB010310319A81B1F5807FF8D100F22F1200234FF0FF09D9
:2029E00040F2011C4FF0FF080021802908BFBDE8F0834FFA89F5A94222DD00EB410595F82A
:202A00002F5105F01F05162D1AD14FFA88F7002600E001367F2E13D8DDB20F2DF9D8BE42B6
:202A2000F7DD12F8164004F01F04172CF1D10EEB051401338946B04666732173A4F80EC064
:202A40000131D2E7D017002010B5064800210170054972B608684C6803F0E4FC2046BDE867
:202A6000104000473C0A002000F40008B0B504464FF4302000F082F8042818BFB0BD384DBC
:202A8000286840F0020028606C60286840F0400028604FF4302000F071F8296841F6FD7275
:202AA00011402960B0BD00BF08480168C9071CBF012070470168490744BF022070470068D7
:202AC000C0064FF0030058BF042070470C2002402348016841F080010160704770B5054680
:202AE0004FF400500C4600F049F8042818BF70BD1B4E306840F0010030604FF400502C808F
:202B000000F03CF8316841F6FE721140316070BD7CB5054600200C4601904FF4005000F040
:202B20002DF8042819D10E4E306840F0010030604FF400502C8000F021F8042808D1A81C94
:202B40000190200C019908804FF4005000F016F8316841F6FE721140316002B070BD00BF45
:202B6000102002400248034901600349016070470420024023016745AB89EFCD10B5044653
:202B800003E0C1B2012904D1013CFFF78DFF002CF7D1002C08BF0520C0B210BD013A062A6B
:202BA00000F2B48080B5DFE802F0041C344C647C9400DFF860C1BCF9003003FB00FE0023F1
:202BC0000BE001EB4302B2F92400D0840CEB4302013BB2F9262002FB00EE13F11302F0D188
:202BE0008EE0DFF830C1BCF9283003FB00FE00230BE001EB4300B0F92420C2840CEB4300EC
:202C0000013BB0F94E0000FB02EE13F11300F0D176E0DFF800C1BCF9503003FB00FE00237C
:202C20000BE001EB4300B0F92420C2840CEB4300013BB0F9760000FB02EE13F11300F0D1EF
:202C40005EE0DFF8CCC0BCF9003003FB00FE00230BE001EB4300B0F92420C2840CEB430048
:202C6000013BB0F9260000FB02EE13F11300F0D146E0DFF89CC0BCF9283003FB00FE002301
:202C80000BE001EB4300B0F92420C2840CEB4300013BB0F94E0000FB02EE13F11300F0D1B7
:202CA0002EE0DFF86CC0BCF9503003FB00FE00230BE001EB4300B0F92420C2840CEB430028
:202CC000013BB0F9760000FB02EE13F11300F0D116E0DFF844C0BCF9003003FB00FE002301
:202CE0000BE001EB4300B0F92420C2840CEB4300013BB0F9260000FB02EE13F11300F0D17F
:202D000064209EFBF0F00880BDE8804000B27047840000200C000020A20200202DE9F04383
:202D200091F803E00EF00F0C5FEACE6244BF8A784CEA020C09880A0621D0036800224FF0EE
:202D400001094FF00F08002616E009FA06F70F4210D008FA02F40CFA02F5BEF1480F23EABE
:202D6000040343EA050304D0BEF1280F08BF476100E0076104320136082EE6D10360B1F543
:202D8000807F38BFBDE8F083436800224FF480794FF00F08002618E009FA06F707EA0105B1
:202DA000BD4210D108FA02F40CFA02F5BEF1480F23EA040343EA050304D0BEF1280F08BF6E
:202DC000476100E0076104320136082EE4D14360BDE8F083B0B51A4A002800F440151FFA9D
:202DE00080FC02F1180E1346B8BF7346B5F5401F1B68C0F3034406D1146823F0706324F0E2
:202E0000706414600EE0C50206D46FF00F0404EA50440CFA04F402E0032505FA04F4A34302
:202E200043F0706331B16FF00F0101EA50410CFA01F10B430028B8BF72461360B0BD00BF83
:202E4000040001408068084018BF012070471023002A08BF1423C1507047000010B588B02E
:202E60000420012101F08CFD0820012101F094FD1120174C05A9069000200590204603F0E0
:202E800051F80D4801A901900920CDF80A00204602F098FF2046082102F0CCFF204601219E
:202EA00002F068FF05486946009004F58230FFF735FF08B010BD00BF600001004000031858
:202EC0000348012102F062BF0148002102F05EBF000800400F490A6892B202EBC00001EB0A
:202EE0004000B0F8B80370470A490A6892B202EBC00001EB4000D0F8BC036FF39F20704737
:202F000004490A6892B202EBC00001EB4000B0F8B0037047505C004080B5494BC0EB002043
:202F200000EB030C13785078C0EBC030C3EBC3334000BCEB430F02D309B984456DD993781B
:202F40008445C3EBC3334FEA430303D9012901D19C4562D9D0789C45C0EBC0304FEA400054
:202F600003D9022901D1844557D913798445C3EBC3334FEA430303D9032901D19C454CD927
:202F800050799C45C0EBC0304FEA400003D9042901D1844541D993798445C3EBC3334FEA03
:202FA000430303D9052901D19C4536D9D0799C45C0EBC0304FEA400003D9062901D184451B
:202FC0002BD9137A8445C3EBC3334FEA430303D9072901D19C4520D9507A9C45C0EBC03076
:202FE0004FEA400003D9082901D1844515D9937A8445C3EBC3334FEA430303D9092901D1E9
:203000009C450AD9D07A9C45C0EBC0304FEA400E05D90A2903D1F44501D8012080BD00202A
:20302000F44598BF80BD127B0B39B1FA81F1C2EBC2324909BCEB420F98BF0120084080BDED
:20304000017F7F000149086849687047A808002010B5ADF5447D01AC2046FFF7BDF8094A46
:20306000A01C4FF0000C0023142B04BF0DF5447D10BDC45C02EB4301013381F803C08C70D7
:20308000F2E700BF08020020E0B501A8FDF70CFD9DF80510344800290A4608BF0122002981
:2030A00080F8682007D00139CA1701EB527121F00701083100E000219DF8042080F870106B
:2030C0009DF80610D3074FF0300308BF042380F8293093074FF0310358BF042380F82B301C
:2030E00053074FF0320358BF042380F82D3013074FF0330358BF042380F82F30D3064FF033
:20310000340358BF042380F8313093064FF0350358BF042380F83330530652B24FF0360363
:2031200058BF0423002A4FEA817280F835304FF00403B8BF362380F83730392303EAE2728C
:2031400080F858204A0703EAE27280F85C200A0701F00101494203EAE27201F0390180F886
:20316000602080F845108CBD480100200A4908688A68801808BF7047B0B5084D4C680822ED
:20318000A91C00F0EDFB05F1120120460422BDE8B04000F0E5BB00BFE8F7FF1F28020020D2
:2031A00080B5ADF5447D01A8FFF716F80648BDF8C012BDF8C2220172090A82724172110A14
:2031C000C1720DF5447D80BD2D010020FEE70000E0B500211A48019102880192019A5205D0
:2031E00004D5028822F48062028001910199890505D5018821F48061018000210191019911
:20320000C90505D5018821F480710180002101910199090505D5018821F400610180002120
:20322000019130F8141C41F4004120F8141C30F8141C6FF3DF3120F8141C00F069F98CBD39
:20324000145400400288002942F4806308BF22F4806303807047828A008B60F3174202EAD1
:203260000100401AB0FA80F0400970470288002942F0010308BF22F001030380704702884F
:20328000002942F4807308BF22F48073038070470288002942F4007308BF22F400730380A3
:2032A000704782B00022019200920090080F019021F07F40019911B10099143102E0009921
:2032C000000C1831009100990968084018BF012002B07047002A82880CBF22EA01011143F4
:2032E0008180704770B586B00446868801A80D4601F05EFB2748039926F03F02264BB1FB9E
:20330000F0F00243A280228822F0010222802A689A4208D85200B1FBF2F14FF6FC721142D0
:2033200008BF04211FE0EB884BF6FF76B34204D102EB4202B1FBF2F105E019235A43B1FB85
:20334000F2F141F480414FF4967250434FF47A72B0FBF2F00A466FF31F32B2FA82F252097C
:2033600011430E4A114301302084A1834FF6F531208840F00100208020880840A988084304
:20338000698908432080A88929890843208106B070BD00BF40420F00A08601000080FFFFA9
:2033A0000288B1F5006F22F4006308BF42F40063038070472DE9F84F9F4C8B4606460121D4
:2033C000994692462046FFF73DFF20460121FFF756FF9A4D9A4FA84620463946FFF73BFFF8
:2033E00010B90135F8D13BE07000CDF800A000225FFA80FA2046514600F080F8914E454651
:2034000020463146FFF727FF10B90135F8D127E02046594600F07AF8B51C4646204629464B
:20342000FFF719FF10B90136F8D119E020460121FFF72EFF454620464FF40031FFF731FF86
:2034400010B10135F7D10BE020460121FFF717FF454620463946FFF7FEFE30B90135F8D1E4
:203460004FF0FF3001B0BDE8F08F20465146012200F044F87D1C464620462946FFF7EBFEE4
:2034800020B901364FF0FF30F6D1EBE7A9F1020B002607F13F051CE0C24620462946FFF73D
:2034A000DAFE28B91AF1010A4FF0FF30F5D1D9E7208A0099C8550A9850B1BB4508D1204607
:2034C0000021FFF7BFFE20464FF2FF71FFF768FF0136F7B24F45DFD320460121FFF7D8FE2A
:2034E00020464FF40031FFF7DCFE28B118F101084FF0FF30F4D1B5E70020B3E741F0010379
:20350000002A08BF01F0FE030382704701827047BFB54FF400100121012501F031FA012006
:20352000012101F021FA4FF48040434C6946ADF80C000D4800900D4801904FF080600290EF
:203540002046FFF7CFFE20460121FFF78FFE20464FF480710122FFF7BDFE054830210560C6
:2035600080F81C13BFBD00BF801A06000000FFBF04E100E02DE9F84F2F4C8A460646012130
:20358000994690462046FFF75DFE20460121FFF776FE2A4F2A4DBB4620462946FFF75BFEB8
:2035A00008B90137F8D170000022C1B22046FFF7A5FF244E5D4620463146FFF74CFE10B949
:2035C0000135F8D130E020465146FFF79FFFB71C5D4620463946FFF73EFE10B90135F8D1F6
:2035E00022E000250EE018F805102046FFF78EFF5E4620463946FFF72EFE10B90136F8D134
:2036000012E001354D45EED320460121FFF740FE20464FF40031FFF744FE50B11BF1010B48
:203620004FF0FF30F4D101E04FF0FF3001B0BDE8F08F0020FAE700BF0054004018FCFFFFCD
:2036400001000300820007002DE9F84F9F4C0546042001214FF00108A04708200121A047A4
:2036600010200121A04701200121A047984C994E01212046B04704F580700121B047022079
:203680000121B04794480121B047954C93486F46394604F5806A00905046FFF73FFB914E14
:2036A0004FF400503946ADF800003046FFF736FB288841F2105120F00F00884240F0F480E5
:2036C0008B494FF04430002741F6030B44F6010920606060E760C4F80004864C705082490F
:2036E000775030607060F76005F120066D461E2F08BFBDE8F88FF05D411E06291AD8DFE8A9
:2037000001F004070A040F193100ADF8029009E042F6010001E041F20140ADF8020001E010
:20372000ADF8028004EBC7008088ADF8000054F837003AE00F2F08BF092819D0102F08BF3D
:2037400008281CD0132F08BF172825D0142F08BF18282FD010283CD808FA00F111F4FA3F4A
:2037600037D043E004EBC700ADF802B0808819E040F20340ADF80200B4F87C0012E0B4F82F
:203780008400ADF802B02946ADF800005046FFF7C5FA01F0FBFA0BE041F60340ADF80200FD
:2037A000B4F89C00ADF8000050462946FFF7B6FA01379CE741F603402946ADF80200B4F87A
:2037C000A400ADF800005046FFF7A8FAFFF7A0FEEEE7112F08BF0B2824D0A0F1110105290A
:2037E00025D8DFE801F0031C292C2F4841F2030004EBC7082946ADF80200B8F80400ADF8C6
:20380000000054F83700FFF789FAB8F8041054F8370001224FF00108FFF719FBC8E740F20F
:2038200003407AE7FFF71AFBFFF74AFBC0E70028BED142F6020070E7ADF802B072E741F2CC
:2038400003006AE741F2030004EBC7082946ADF80200B8F80400ADF8000054F83700FFF738
:203860005DFA54F83710B8F804004FF00108CA6822EA000016E041F2034004EBC70829468B
:20388000ADF80200B8F80400ADF8000054F83700FFF744FA54F83710B8F804004FF00108E2
:2038A000CA681043C86083E70F4810494FF49672335883F480533350F36883F40053F36026
:2038C0000A600B68002BFCD1F2E700BF9949000800013000D52D000800081A000010011013
:2038E00000080140001001400CFCFFFFB008002004FCFFFF9C03002010B5164C2168084695
:2039000010F8082F022A03D0062A07D0042A12D1FEF7F6FB206810F8081F0DE048780528DA
:2039200004BF08785FEA40600BD00C480068806880472068083008210170BDE8104000F0D6
:20394000D5BFC87801F084FA03480068006A8047EBE700BFE4040020EC040020E80400208B
:2039600010B501314FF0000C4FF0370E10E00EEB1073040FB0F1204F81F800C0A2F1010223
:203980004FEA001038BF04F1300301F8013C0231002AECD110BD10B54FF0000E4FF0000C45
:2039A00004E031F91E300EF1010E9C44BEF1080FF7D14FEAEC730CEB537302EB420C00227D
:2039C0004FEAE30E002306E031F912400132A4EB0E0404FB0433082AF6D10CFB0CFC4FEAED
:2039E000D30E002204E001EB4204013AA389E381D41DF8D108800020E64598BF012010BD11
:203A00002DE9F041DFF84C8D01F12000FF25002322E0CF1897F82070152F1CD158F833603A
:203A200008EBC307BF88F56825EA07070025F7600EE0475D162F0AD158F8356008EBC50736
:203A4000BF88F4682743F76017780137177001351E2DEED11D4601331E2BDAD1DFF884C0CE
:203A60004FFA85FE00219CF9003002E0994209DC01311D2988BFBDE8F081445C152CF7D174
:203A80008E45F3D158F8314008EBC1039B88E5682B430025E360384B13E0445D162C0FD198
:203AA0001C7808EBC507BF88661C1C441E7058F835606478002CF4680CBF3C43BC43F46016
:203AC00001351E2DE9D110781A78824224BF002018708E4508BF4FF0FF318CF80010BDE800
:203AE000F08100BFCA020020B0B5DFF868ECDFF888C001F1200000211E2908BFB0BD435CAE
:203B0000142B14D115780EEBC1045EF83130A48865446D7815B1DD682C4304E0B4FA84F441
:203B2000DD6864092C40DC601378013313700131E2E700BF10B5DFF848CFDFF83CE000F594
:203B400037706FF0170113E010F9012C002A0DDB0CEB02120478927A04F00704B2FA82F359
:203B6000012C08BF5A090EEB01035A76023001310029E9D110BD00BFAC040020BCB50446C3
:203B800000208DF807002046FFF7D4FF0DF1070521462A46FFF734FF21462A46FFF7A4FFD0
:203BA000BCBD00002DE9F84F1E4615468846044602EB4307FFF746FA97F82F1101F01F020A
:203BC0001C2A00F2E98207F22F11DFE812F02201240139015A016F0184011D001D001D0017
:203BE0001D0050005000500050007D007D007D007D00A900A900A900A900E502E502C3003F
:203C0000C300C300C300A201E37A267A627A002B00F09C80964200F08980D4E900370022C1
:203C2000C01A62EB0703EF8A3D1A72EB030580F084806672E272207B30442073097898F8CB
:203C4000000001F01F01082900F0A882072900F0B082062940F0B88200F0F70088F80000B6
:203C6000217A40EAC10088F80000BDE8F88FE37A267A627A002B69D0964257D0D4E90037E2
:203C80000022C01A62EB0703EF8A3D1A72EB030553D26672E272207B30442073097898F898
:203CA000010001F01F010B2900F0F3810A2940F0FB8100F0F70088F80100217A40EAC1008D
:203CC00088F80100BDE8F88FE37A267A627AEBB396422BD0D4E900370022C01A62EB0703A6
:203CE000EF8A3D1A72EB030527D26672E272207B30442073097898F8020001F01F010F296C
:203D000000F0E0810E2940F0E88100F0F70088F80200217A40EAC10088F80200BDE8F88FE5
:203D2000E37A267A627A8BB196424CD1D4E900130022EF8A401A62EB0303381A72EB0300AF
:203D400080F02A820020E072BDE8F88F964240F0888121E2E37A227A6BB3002A00F00F82D3
:203D6000D4E900370022C01A62EB0703EF8A381A72EB030080F0108240F20110E272DFF861
:203D8000007D73000026A4F80900207B0130207305F22F100BE0B34208D0855D0C78654010
:203DA00015F01F0504BF07EBC605AA720236B6F5807FF0D1F0E1617A8A4200F25281002A34
:203DC00040F0EA81DBE1D4E900370022C01A62EB0703EF8A3D1A72EB0305AED26672E27264
:203DE000207B30442073097898F8030001F01F01132900F08081122940F0888100F0F70074
:203E000088F80300217A40EAC10088F80300BDE8F88F227A04E0217AB1FA81F14A092272CB
:203E2000E37A617A002B00F0BE808A4240F0BE80D4E900230021EF8A801A61EB0303C8E0A9
:203E4000E27A217A002A00F0CA80002900F09781D4E900230021801A61EB0302EB8A181A43
:203E600071EB020080F0988101206072E172A07A217BB0FA80F0013140092173A072BDE87F
:203E8000F88FE37A217A627A002B00F0AF80914200F0AE80D4E90023EE8A0027821A67EB1F
:203EA0000303B21A77EB03022BD3A1E0E37A217A627A002B00F0AC80914240F2AB80D4E942
:203EC0000023EE8A0027821A67EB0303B21A77EB030216D3A5E0E37A217A627A002B00F09C
:203EE000B280914280F0B180D4E90037EE8A4FF0000CC31A6CEB0707F31A7CEB070380F035
:203F0000A480012061726081207B01302073BDE8F88FE17A94F80890002900F09E80B9F1BD
:203F2000000F00F02C81D4E90023E98A4FF0000C821A6CEB0303891A7CEB030180F02C8113
:203F400084F80BC0DFF8F8CE07F5977A05F5967E4FF0010837460CEB07130EEB4701A3F1B7
:203F6000070B02E0ABF1100B0239013FC0F2DB809AF800200B789342F4D14A7802F01F026A
:203F80001C2AEFD19BF801104FF000080029E2D09BF800104FF000080029DCD18BF8018091
:203FA000C4E900083CE18A425BD1F5E0D4E900370021C01A61EB0703EF8A3E1A71EB0306E7
:203FC00007D2A272E1726272207B10442073BDE8F88F381A71EB0300FFF4B4AEDCE0627A81
:203FE00091423ED8002940F0D780C8E0914238D1D4E900230021801A61EB03022B8B181AD0
:020000040800F2
:2040000071EB02003CBF6181BDE8F88FBDE8F88F914226D129B922B10020E0726072BDE8A5
:20402000F88FD4E900230021801A61EB03022B8B181A71EB020080F0AF800120E172A4F818
:204040000900BDE8F88F91420BD189B182B90020E07201206072BDE8F88F617A894540F29B
:204060008B800021C4E900010120E072BDE8F88FD4E900370022C01A62EB07032F8B381A74
:2040800072EB03003EBF61726281BDE8F88FBDE8F88F00F0FB0088F80100217A40EA810003
:2040A00088F80100BDE8F88F0C2940F0978000F0FD0088F80100217A40EA410088F80100E2
:2040C000BDE8F88F00F0FB0088F80200217A40EA810088F80200BDE8F88F102940F08880E2
:2040E00000F0FD0088F80200217A40EA410088F80200BDE8F88F00F0FB0088F80300217A94
:2041000040EA810088F80300BDE8F88F142979D100F0FD0088F80300217A40EA410088F8C8
:204120000300BDE8F88FB8F1000F35D0A17A99BB4FF0800E1BE005EB41079AF8003097F8D3
:204140002E219A4211D197F82F2102F01F021C2A0BD10CEB0117394611F80A2F002A08BF7D
:20416000BDE8F88F7A7A002A56D0AEF1010E0FFA8EF1B142DFDC0FE0B9F1000F0CD1D4E9A9
:2041800000230021801A61EB0302EB8A181A71EB02003CBF6172E172BDE8F88F00F0FD00B1
:2041A00088F80000217A40EA410088F80000BDE8F88F00F0FB0088F80000217A40EA81001C
:2041C00088F80000BDE8F88F00F0FE0088F80000217A084388F80000BDE8F88F00F0FE0045
:2041E00088F80100217A084388F80100BDE8F88F00F0FE0088F80200217A084388F80200D3
:20420000BDE8F88F00F0FE0088F80300217A084388F80300BDE8F88F00220A70C4E9000221
:20422000012084F80990A072BDE8F88F01EB4101014440780A794979022805D14FF478607F
:20424000490800EAC21003E04FF4706000EA02200843704780B54FF4807241774FF0007379
:20426000DFF8F0C4A0F81B20E84A13604FF00053136090F900200CEBC2035CF83220B3F880
:2042800004E0D36823EA0E03D3604278131F022B09D3032A13D0022A18BF80BDC21C011D6D
:2042A000104602221BE001EB4102032310448A08890163F35F0200F8032F41700DE001291B
:2042C00001EB41016FF05F0208444FF0010108BF6FF01F0200F8031F4270014603220023C1
:2042E000BDE8804000F038BC10B50446D3480021FDF74EFE94F90000D14901EBC00251F84C
:2043000030009288C1681143C16040F20110A4F81B0010BD0B79DB0644BF4FF0FF30704761
:2043200001EB4201B1F8051009BA090C018000207047E0B55022800003238DF803200022E9
:20434000ADF805208DF807208DF804000DF10300052200F001FC8CBDE0B50146F0200122F1
:2043600003238DF807000DF1070000F0F5FB8CBD2DE9FC47044690F90000F64E0DF10305E7
:2043800006EBC00156F830008988C26822EA0101C1608020294600F055F9844F3220B84712
:2043A00094F90000DFF8088206EBC00156F830008988C2681143C1601420C04794F9000067
:2043C00006EBC00156F830008988C26822EA0101C1602846FFF7C0FF3220B84794F9000042
:2043E00006EBC00156F830008988C2681143C1603220C04794F90000DFF8B89106EBC00125
:2044000056F830008988C26822EA0101C16000202946C8474620B84794F9000006EBC00172
:2044200056F830008988C2681143C1600A20B84794F900009DF80620DFF87CA106EBC00137
:2044400056F830008988C36823EA0101C1604FF47E40002100EA02202A46D0474620B84758
:2044600094F9000006EBC00156F830008988C2681143C1601420C04794F9000006EBC00155
:2044800056F830008988C26822EA0101C16001202946C8474620B84794F9000006EBC001F1
:2044A00056F830008988C2681143C1601420B84794F9000006EBC00156F830008988C268A3
:2044C00022EA01012A46C1604FF487400121D0474620B84794F9000006EBC00156F83000D8
:2044E0008988C2681143C1601420C04794F9000006EBC00156F830008988C26822EA0101CB
:20450000C16002202946C8474620B84794F9000006EBC00156F830008988C2681143C16008
:204520001420B84794F900009DF8062006EBC00156F830008988C36823EA0101C1604FF421
:2045400028704EF2A02140EA02202A4608400221D0474620B84794F9000006EBC00156F892
:2045600030008988C2681143C1601420C04794F9000006EBC00156F830008988C26822EA1C
:204580000101C1601E20294600F05CF83220B84794F9000006EBC00156F830008988C268BE
:2045A0001143C1601420C047BDE8FC87D5210008C5210008334300085F460008E0B54FF434
:2045C00080714FF00072A0F81B1000218DF80710ADF80510CDF801104E218DF800100B49D1
:2045E0000A604FF000520A605A4A90F9001002EBC10352F831109B88CA689A430323CA605B
:20460000C11C6846082200F0A7FA8CBD80E100E010B5044609480021FDF7BAFC94F9000012
:204620004C4901EBC00251F830009288C1681143C16040F20110A4F81B0010BD1C000240E1
:204640009C030020E0B5002203238DF807208DF806000DF10600022200F07EFA8CBDE0B519
:20466000602389008DF8033000238DF807308DF806108DF80500000A1146052203238DF83F
:2046800004000DF1030000F067FA8CBDB0B5DFF840C04FF0000E4AF20101BEF5807F08BF3B
:2046A000B0BD1FFA8EF30022002009E083EA020581EA520401305B08ED0708BF5408224680
:2046C0000828F3D32CF81E200EF1010EE5E700BF401200202DE9F047DFF8E08E14460D4638
:2046E000824600271E2F08BFBDE8F087E81990F8200003282BD194F90000002827DB08EB21
:20470000C70958F837000022002639F8041FFEF79EFB13E0A81990F8200004280DD194F925
:204720000000002809DBF0B22946FDF77FFD21780AF8010020780130207001361E2EE9D1BA
:2047400058F83700B9F800100122FEF780FB0137C8E700BF9C030020FEE7704770470000C6
:20476000C2781449D2B110B5174A0723126890F801E0847890F800C023EA12220F23D34022
:20478000C2F1040223400EFA02F21A4301EB0C03120183F80023BDE8104000E080310078FA
:2047A000012300F01F02C0F3421003FA02F241F82020704700E100E0024908430249086094
:2047C000704700BF0000FA050CED00E0F8B5544E3768384610F8081F032903D0072929D0C8
:2047E00005292DD1388AB8B1B969A9B1BC8A844288BF0446204688470546388A001B388232
:20480000788A204478820020FEF764FB01462846224600F04FF8388AA0B142484FF44051FF
:2048200001800020002100F08BFB3F4830210180398A08E01C480068C068804730680830B1
:2048400008210CE00021BA8A3068914204D2083051B10521017002E0032100F8081F017036
:20486000BDE8F84000F042B8062101700E48006880688047306810F8081F082907D129492A
:204880004FF480520A80284910220A80D8E7074A074C136804EA43031A440023C2F8B43318
:2048A000214A30231380DAE7E8040020505C0040FEFF0100074B013203EB41010023A3EB8A
:2048C000520203E008C9013220F8023B002AF9D1704700BF0060004010B1024989680160E0
:2048E000704700BF900400207047000080B50B4890F82C10002000F0D3FA09480068007A7B
:20490000082806D107494FF480520A80064910220A800938B0FA80F0400980BD7002002023
:20492000E40400200C0500200E0500207F480121016000214160032101600020704700BFE4
:20494000B0B57A4C0120074D20600020288020606068002000F032FB4FF4E050288020604F
:204960000020B0BD601C0020044A002911680CBF21EA000008431060704700BF14100240B1
:20498000044A002911680CBF21EA000008431060704700BF1C100240044A002911680CBFF7
:2049A00021EA000008431060704700BF1810024010B51B4C226802F00C031A4A082B0FD123
:2049C0002368C3F3834303F1020C2368DB0301D4154A03E023689B0348BF134A0CFB02F2C6
:2049E000026012492368C3F30313CB5CDA4042602368C3F30223CB5C22FA03F383602368B3
:204A0000C3F3C223C95C0A4B22FA01F1C1602268C2F381329A5CB1FBF2F1016110BD00BFED
:204A20000410024000127A0000093D001C6800081868000801490860704700BFD8004242B6
:204A4000B0B5DFF8FCC300214FF0010E042908BFB0BD01F1180200235CB2002C0DDBDCB2AC
:204A6000013300EB440595F82F5105F01F05AA42F2D10CEB041282F80AE00131E6E700BFCA
:204A8000400A002007281CBF274908702648017805293AD8DFE801F0030714181F2A4168B3
:204AA00051B3052132E021494FF6FB730A681A400A604FF43F420A6004210170012130E071
:204AC00002214170032121E0417801394170417889B904211AE015490A6842F0100292B2C7
:204AE0000A60052101700A2141707047417801394170417861B170470C494FF6FB730A6882
:204B00001A400A604FF43F420A6006210170704706494FF6EF730A681A400A600621017090
:204B200000214160704700BFD4040020405C00400288B1F5804F22F4804308BF42F48043D1
:204B4000038070470288002942F0400308BF22F040030380704700002DE9F04F8DB0824643
:204B600073480C460CA9009316460C907148FEF7D5F89E4804960294494C0DF10409002790
:204B80004FF48058494600F10C058020019503970B97CDE90777CDE9057020460997CDF8CD
:204BA0002880FDF78BFA204602210122FDF77EFA634C4FF0400B1020494684F80CB3C4F8CD
:204BC00000800496CDE9015A354D039080200B97CDE90777CDE90570CDE9097805F11406AD
:204BE0003046FDF76BFA304602210122FDF75EFA52487E4A43F6FC3180F800B04FF400505B
:204C000020601088084010800098118800F003000843012110802846FDF7BAF930460121D6
:204C2000FDF7B6F90DB0BDE8F08F00BFF0B58BB06E4E0391019000208021194D4FF480572F
:204C4000144602900A90CDE90600CDE9040108900997694606F10C0000902846FDF72EFA53
:204C6000284602210122FDF721FA3548402180F80C130760308820F00300308004F0030023
:204C8000318808434BF6FF7140F4004030803046FFF74EFF28460121FDF77AF90BB0F0BD23
:204CA0001C00024070B58CB0064621480D460BA914460B901F48FEF731F803954B4D019638
:204CC00080211D4E05F10C0000901020029000200A90CDE90600CDE9040108904FF4805098
:204CE000694609903046FDF7E9F9304602210122FDF7DCF911484021017011484FF4005183
:204D00000160288820F00300288004F00300298808434FF4804140F4004028802846FFF750
:204D200007FF30460121FDF733F90CB070BD00BF08000318000C0140300002400DE400E05A
:204D400000E100E0002A82880CBF22EA010111438180704702880B8802F441521A434B88A3
:204D60001A438B881A43CB881A430B891A434B891A438B891A43CB891A430280828B22F4CD
:204D800000628283098A01827047000010B586B04FF480500121FFF7FFFD01200121FEF785
:204DA00019F81048114C01A901904FF4003002900D480390282004900720ADF814002046E3
:204DC000FFF7C8FF01200121FFF7CEFD204603210122FFF7B7FF20460121FFF7B3FE06B0D4
:204DE00010BD00BF00C00401010000020030014070470000B0B500F5977E114800214FF00F
:204E0000010C00F10A02802908BFB0BD97237046144602E0023001331034A3F197056DB206
:204E2000002D0ADB457805F01F051C2DF2D190F90050A942EED184F800C00131E3E700BF04
:204E4000400A0020434920F007000860704700BF10B50C49584A002340F60F7C48F2800EFF
:204E6000097809E052F8234004EA0C041C4344EA0E0442F8234001339942F3D140F080005E
:204E8000D06410BDA0020020324A21F0010113689BB203EBC00002EB4000C0F8B8137047E3
:204EA0002C4A3F29136802F56F729BB203EBC0000DD3CB064FF0FF3C4FEA511308BF0CEB40
:204EC000511399B24FF4004343EA812104E001F0010303EB5101890242F81010704700BF5A
:204EE00010B5354C44F2700254F8203023EA0202CB0448BF82F48052890448BF82F400529D
:204F000048F28001114389B244F8201010BD00BF294943F60F7351F820201A404BF280037F
:204F20005A4041F8202070470A4A21F0010113689BB203EBC00002EB4000C0F8B01370476B
:204F4000044A13689BB203EBC00002EB4000C0F8B4137047505C004010B5F64C47F24002BC
:204F600054F8203023EA0202CB0648BF82F01002890648BF82F0200248F28001114389B2B4
:204F800044F8201010BD00BFEA4940F63F7351F820201A4048F2B0035A4041F82020704764
:204FA00010B5E44C48F68F1254F820301A40114344F8201010BD00BF005C0040014908608D
:204FC000704700BF445C004070B504460F291ED8E1B1C1F110064FF6FE70F040FBF78BFA2A
:204FE00001460C48FBF74CF9054647F6FF7020443041FBF780FA01462846FBF70FF90649A9
:20500000FBF7B4F8FBF785FA044600E0002420B270BD00BF00FE7F4700FEFFC6E0B5042035
:205020000121FFF7B9FC054801A901900448FDF775FE04200121FFF7AFFC8CBD0018031805
:205040000008014080B50020FFF7F4FC4FF400000121BDE88040FFF793BC00002DE9FC416A
:20506000B44EDFF83489B44FB44D306DD8F800100A7A092A01D1C8881EE007EA40002844A5
:20508000D0F8070007EA40008219441992F800240A70425D4A70B4F80300FCF799FCD8F890
:2050A00000104880B4F80700FCF792FCD8F800108880B4F80B00C880012200280A724C7872
:2050C00027D0620842EAC412D2B2052A00F2D880DFE802F003D6D63F4F55022840F0D0807B
:2050E0004888002840F0CC800879002840F0C880087800F07F00022800F0A680012800F0D3
:20510000B880002840F0BC808888002840F0B880C8E0087800F07F0002284CD0012851D0FC
:2051200000286CD1601E082869D8DFE800F0056853685B6868686500C87801285FD188889B
:2051400000285CD1487A800659D583480021416035E00878400640F093808878032869D075
:2051600002286BD0012840F08B80754800681C3067E00878400640F08380734A93E00A7803
:2051800002F07F02012A7BD18A7A002A78D04A88002A75D1012873D10879002870D1487955
:2051A000674909688A6900219047002868D1D8F80010644A77E0032C09D0012C1FD100F088
:2051C000A5FA1BE00B2C1AD100F0C6FB16E000F089FB13E0C878012811D1888878B900F089
:2051E00073FB16E091F90300002810DB887870B9888860B9887A09E000F050FB48B15048A2
:20520000006841692046884703280ED008B108200CE0306D002107EA40002844C0F803104B
:205220004E4830210180062000E00920D8F8001008724CE042480068243002E04048006839
:20524000203002687ABB1BE04F7907F00F033A0656F823004FF0300258BF4FF4405217F07E
:20526000700F0DD1394F3F78BB4209D2104019D106E04879324909688A690021904760B1F1
:205280002F49D8F800000968407809698847044603280DD1D8F8000017E0D8F80010887A60
:2052A0000028EDD02A4A002000248A614C829047D8F800004FF6FF72018A914205D0022CDA
:2052C00018BF002907D1082100E009210172BDE8FC41FFF70BBB90F90020B2F1FF3F06DD45
:2052E000032101721B484FF440510180EFE7C2880192019B8B4202D20199018212E091428D
:2053000010D20F4A126892F82C20914202D21249002206E0B1FBF2F303FB121111B90E4925
:2053200001220A700649096891F82C108182FCF7E7FECCE7005C0040FEFF01000160004082
:20534000E804002001580008C5570008A0020020215800080C050020DC0400200E05002015
:205360002DE9F0410546C07916460C469C281ED1287AB0281BD1687AC42818D1A87AD828C2
:2053800015D1E87AEC2812D1287B80B9687B14280DD1A87B28280AD1E87B3C2807D1287C64
:2053A000502804D1687C642801D123463CE047F6FF78304604EB0807FBF7A6F81C49FAF7CB
:2053C000D5FE01461B48FAF75BFFFBF7A2F897FBF0F1731E0735C827CAB29A4208BF06F134
:2053E000FE01CEB2AA5706FB00F1A1EB0801C2EBC232A1424FEA420292FBF7F2134613DCE7
:20540000731C5843EB56A0EB0800C3EBC333A0424FEA430393FBF7F306DB9B1A671A401AA0
:205420007B4393FBF0F0831818B2BDE8F08100BF000080BF00FE7F472DE9FC4782465D483D
:205440005D4E894601A90190A6F10C00FDF766FC306820F0080030609AF8000040F002009A
:2054600003281AD19AF90210544800EBC10250F831109288CB681A43CA60052101E000BF04
:2054800001390029FBD19AF9021000EBC10250F831009288C16891431AE09AF902104748CC
:2054A00000EBC10250F831109288CB6823EA0202CA60052101E000BF01390029FBD19AF9A5
:2054C000021000EBC10250F831009288C1681143C1609AF80100FBF717F8FBF74CF80022EF
:2054E0004FF07F534FF00008FAF708FFFBF72AF832490022824208BFBDE8FC8709F8028075
:205500009AF80030022B29D28025376827F008073760052701E000BF013F002FFBD19AF906
:20552000037051F8374001EBC707A468BF883C421EBF19F802702F4309F80270376847F092
:2055400008073760052701E000BF013F002FFBD16B08B8EB550F1D46D7D128E080243768CE
:2055600027F008073760052701E0013F00BF002FFBD19AF9037051F8375001EBC707AD68C2
:20558000BF883D4204D119F80270274309F80270376847F008073760052701E000BF013F88
:2055A000002FFBD16308B8EB540F1C46D7D10132A0E700BF080003100C0C01409C030020C9
:2055C0002DE9FF47DFF80491144605460026E8464FF0010A042E08BFBDE8FF8709EB86071B
:2055E00097F90200002821DB97F9030000281DDB38464146FFF720FF781C00210FE0CB08B1
:2056000001F00707D2B2013118F803300AFA07F73B4018BF0123AB54227801322270027842
:20562000914203D294F90020002AE8DA0136D1E710B5DFF898C000F2A72100224FF6FF7EA8
:205640000BE00CEB0203A3F802E08C5C5C708B1813F8013C0CF802300432102AF1D120308F
:205660000022FF2100230CE04CB2A34208DDC45C122C05D1D1B201320CEB8101CB70194614
:2056800001331E2BF0D10023FF2100220CE04CB2A24208DD845C112C05D1D9B201330CEB0B
:2056A00081018A70114601321E2AF0D10020042808BF10BD0CEB800292F90330002B03DBBB
:2056C0009378FF2B08BF91700130F0E7D01B0020F8B514460D460646002714E0E81990F870
:2056E0002000013801280DD894F900000028B8BFF8BDF8B22946FCF799FD217870542078CB
:205700000130207001371D2FE8D9F8BDF8B5A2480168087800F07F00022806D048B9487A1C
:2057200000F0DF004872002004E0488808B9087910B1022001B0F0BD4879854F4FF440551C
:2057400000F07F0410F08002824857F8243018BF302506780220B442ECD22B40EAD0887A40
:205760000028E6D057F824005AB100F03000102821D12046FCF706FA20463021FFF7ECFB96
:2057800019E000F44050B0F5805F14D11CB12046FCF7E6F905E00A4890F82C102046FFF7C7
:2057A0007FFB57F8240043F60F7108404BF28001484047F824007A48006840698047B2E71F
:2057C0007002002040B180B57548006800688047714800680A3080BD6F4801210068018261
:2057E000002070476C4A002813685A8A02D00868104470478888801A18820020704700BF6E
:2058000040B180B56648006880688047624800680C3080BD60480121006801820020704786
:2058200010B55D490028096814D01B4C00202080087800F07F00022810D0012824D058B932
:20584000487A022101EA1011C0F3801008441249087015E002200882002415E091F905109C
:205860003B4A01F00F00B1F1FF3F52F820000DDD00F44050B0F5805F02D1074801210170B2
:205880004748006800698047204610BD00F030001028F2D0F4E700BFA00800203E482D4A35
:2058A00000685278C178914203D882780AB982880AB10220704780B58172394800684068BB
:2058C0008047002080BD00BF80B533480068417A41F02001417232480068C069804700201B
:2058E00080BD00BFB0B52C48194D1A4C0368587900F07F0155F821202478A14226D210F056
:20590000800C4FF440544FF0020018BF302414421BD05A88CAB9987AC0B143F60F70BCF12A
:20592000000F18BF40F63F7055F8212000EA020049F2800218BF48F29002504045F82100D4
:2059400017480068806980470020B0BD0220B0BD005C0040A002002010B5104A0E4C126863
:205960002068C1784079926990470146022091B921688A7A7AB1087908B9887808B1022053
:2059800010BD07480068C06880472068C1784279C2720173002010BDE4040020E80400206F
:2059A000EC04002080B51D48DFF874E00023D0F800C007E000EB830252F8402C92B24EF8D0
:2059C00023200133082BF5D14CF4806292B202604FF6FE320CEA020C0CF2014303600CF570
:2059E0008063036043685B05FCD54FF6FF334360002307E05EF8231000EB8302013389B2F9
:205A000042F8401C082BF5D14CF481610160016841F0040189B2016080BD00BF405C004061
:205A2000640500200748016842680131016042F1000141600448016811B101680139016098
:205A4000704700BFA8080020B0080020FEB501A8FEF7AEFF01994FF47A70F022B1FBF0F0C5
:205A600005490138486005480270002088600720086006B080BD00BF10E000E023ED00E02F
:205A800082B03648364A016841F00101016041681140344A4160016811400160016821F427
:205AA00080210160416821F4FE0141604FF41F018160002101910091016841F4803101604E
:205AC000016801F400310091019901310191009919B90199B1F5A06FF2D10168890354BFC3
:205AE0000021012100910099012930D11E490A6842F010020A600A6822F003020A600A6822
:205B000042F002020A604168416041684160416841F480614160416821F47C11416041685C
:205B200041F4E8114160016841F08071016001688901FCD5416821F003014160416841F0AD
:205B400002014160416801F00C010829FAD107484FF00061016002B0704700BF0010024034
:205B60000000FFF8FFFFF6FE0020024008ED00E02DE9F041B0B0E64C0121204600F00FF9AC
:205B8000002800F0DB8020460121012500F0FBF8FDF758FADFF8C481C8F80000D8F800000F
:205BA000D8F80410401A6E49898B884232DBD8F800006F4610AC07F1300107F11B02C8F8C6
:205BC00004002046FBF760FD07F11C00BA1C00210026FAF749FF07F12C00FEF77DFE8DF889
:205BE00012600EE007EBD60206F00700D37C05FA00F123EA0101A35D013603FA00F00843C1
:205C0000D074402EEED101203F218DF80100781C00F0E4FA534CD8F800002168401A02282E
:205C200020DBD8F8000020604D48FBF765F94E4D4FF480500021A84707200021FEF7A0FE9B
:205C400018200021A847FAF7CBFD4FF480500121A84707200121FEF793FE18200121A84707
:205C6000FDF72EF9D8F800006168401A022857DBD8F80000002760603C4C38E0E05DFE2800
:205C800034D1E519E87E88B3287F78B3687809280FD14FF400100121FEF772FE2846FAF764
:205CA000D0FEC8F80C004FF400100021FEF768FE687808281AD14FF400100121FEF760FEB8
:205CC000697F2846FAF78EFEC8F80C000021687F032838BF411C2846C9B2FAF798FEC8F86E
:205CE0000C004FF400100021FEF74AFE2837B7F5A07FC3D1002011E094F9001000290BDB6C
:205D0000217F49B1E17E39B161788A1E042A18D306291BD001291DD0283401300728EBD955
:205D2000D8F80000D8F80810884207DDD8F800000B49C8F808000E48FCF778FD30B0BDE8CE
:205D4000F08120460021FEF785FAF7E72046FEF735FCF3E7204600F065F9EFE710050020D4
:205D6000C01400200400002099490008901A0020400A00200288002942F0800308BF22F0AC
:205D8000800303807047C943018270470288002942F0010308BF22F0010303807047028A74
:205DA0000A4018BF01228089084018BF012010407047002A82890CBF22EA010111438181EB
:205DC0007047000010B5028C22F001020284048CB0F804E0038B0A8823F0730343EA020C1E
:205DE0000B8924F002021A434B881A436F4B03444FEAB323072B14D8012404FA03F313F020
:205E0000E50F0ED08C892EF4407322F00C022343CC8943EA040E4B8923F004031A438B884E
:205E20001A43A0F804E0A0F818C0C9888186028410BD00BF028B22F0080211430183704777
:205E400010B5028C22F480720284048CB0F804E0838B0A8823F0730343EA020C0B8924F435
:205E6000007242EA03224B8842EA03224C4B984202D04C4B984212D18B892EF4405422F4C4
:205E8000406244EA0313CC8943EA041E4B8940F2FF441B02A3431A438B8842EA0322A0F8D3
:205EA00004E0A0F81CC0C9888187028410BD00BF828B22F0080211438183704710B5028C94
:205EC00022F480520284048CB0F804E0828B0B8822F4E64242EA032C0B8924F4005242EAD5
:205EE00003324B8842EA03332D4A904202D02D4A904204D18A892EF4804444EA821EA0F8A0
:205F000004E0A0F81CC0C988A0F84010038410BD002C0140828B22F4006242EA0121818358
:205F2000704700000288B0F1804F0ED0A64B98420BD0194B984208D0184B984205D0184BA1
:205F4000984202D0174B984203D14B8822F070021A4310B5144C40F48063A342BDE81040BB
:205F600003D0CB8822F440721A4302808A8882850A8802850D4A02444FEAB222072A07D868
:205F8000012303FA02F212F0E50F1CBF097A018601218182704700BF00080040000C0040E2
:205FA00000340140002C01400014004000D4FEBF4FF6FF7141600021016001727047000018
:205FC00070B50C46017A05460430FB220423FBF7A5FDE0B1B5F90600B5F90460FAF78BFAAB
:205FE00005463046FAF787FA0146284600F0CEFAFAF7C1FA084A094BFAF7F2F9084B00225E
:020000040800F2
:206000000025FAF77BF9FAF7C9FA206001E04FF0FF35284670BD00BF182D4454FB210940D2
:206020000080664001211F4AA0F81B1090F9001002EBC10352F831109B88CA689A43CA60BB
:206040004FF40C414FF0007220F8031F04490A604FF000520A6002210022FEF723BE00BF39
:2060600080E100E010B504460C480021FBF790FF0B484FF48041FEF75BFD94F90000094957
:2060800001EBC00251F830009288C1681143C16040F20110A4F81B0010BD00BF1C0002403D
:2060A000003001409C030020F0B58DB0044601A8FEF77EFC4FF400600121FEF76DFC0AAE91
:2060C0003046FFF775FF092004993F4DADF82C0042F21070B1FBF0F005F594373146013808
:2060E000ADF828003846FFF71DFF384601210122FFF75FFE35483021017035484FF00071C1
:20610000016038460121FFF741FE02200121FEF737FC3046FFF74CFF00274FF447000399D9
:20612000ADF82E70CDF82A002A48B1FBF0F031460138ADF828002846FFF7F4FE28460121CC
:20614000FFF718FE2448ADF82070BDF82C10642706AE0690013194F8C30248433146B0FB9C
:20616000F7F0ADF81E002846FFF72CFE28460821FFF760FEBDF82C1094F8C10201314843FF
:206180003146B0FBF7F0ADF81E002846FFF758FE28460821FFF78CFEBDF82C1094F8C20221
:2061A000013148433146B0FBF7F0ADF81E002846FFF784FE28460821FFF7ACFE28460121A9
:2061C000FFF7E4FD0DB0F0BD0004004019E400E000E100E0A08601006000010010B5094CFA
:2061E0000A460146207858B107480068052807D1812000F0EFF80120FEF7C6FE00202070A9
:2062000010BD00BFCB020020380A002080B5FEF705FF00F017F8FEF715FFBDE8804000F018
:2062200001B8000005480221054A0175564900F10C03C0E90031826008680047E404002056
:20624000EC020020E0B54FF4A060FEF7B5FA0348019001A8FEF784FA8CBD00BF140100019E
:2062600070B588B0464D474C504E686C6080308861880140090402D5FBF7ACFB3088618849
:206280000140490506D54FF6FF3068643E4840688047308861880140890444BF4DF6FF713A
:2062A000696461880140C90406D54EF6FF7068640020FEF7E7FB30886188014009050CD5F8
:2062C0003248007810B1FFF76DFB02E00220FEF7D9FB4FF2FF7068643088618801408905F4
:2062E00005D54FF6FF51696421780131217061880840C00541D54FF6FF606864A86C000472
:2063000002D40020606035E0606801306060606804282FD3286C00072CD4286C002180B281
:20632000A060684605E055F8212092B240F8212001310829F7D1A16841F00101A160A1680E
:2063400089B22964A16821F00101A160A16889B22964696C4905FCD54FF6FF316964002130
:2063600005E050F8212092B245F8212001310829F7D1C6E70720FEF785FB08B070BD00BFD5
:20638000005C0040C80400207002002060030020FFF766BF044800214FF43F424160034927
:2063A0000A80026000207047405C0040601C002070B500F07F050C462846FCF795FD064678
:2063C0002846FCF787FD014620463246FEF772FA304670BD70B500F07F0614460D463046F2
:2063E000FCF78EFDA4B201462846224600F008F830462146FEF7A4FD002070BDFEE7000017
:20640000074B013203EB41010023A3EB520204E030F8023B013221F8043B002AF8D1704744
:206420000060004080F3088870470000FFF70EFB204C2046FBF7D0FE208841F2105120F025
:206440000F00884205D01C48FBF7D2FE1948FBF7C3FE184C2046FAF72DFB3220FBF7B2FE7D
:206460002046FFF7D3FE2046FDF7EEF82046FAF79DFB2046FCF7A0FA2046FFF7D9F820463A
:20648000FEF7DEFA2046FEF7B5FC2046FFF70CFE0A4D2046FBF70CF92046FDF76FFB2878A5
:2064A0000028F6D03220FBF78DFEFEF73FFAFCF7CBFAEEE7C01400202C6800083C0A00206E
:2064C00010B5884201DA184A2CE0984202DD47F6FF7227E0DDF808C0A3EB020E841A0EFB94
:2064E0000CF34FEAA32301DD9C421BDB904212DAA2EB010E131A0EFB0CF4A412A34211DBD5
:20650000401AAEEB040247F6FF71C0EBC03090FBF2F0421A06E0E11AAEEB0300C1EBC13156
:2065200091FBF0F2104610BD0180FFFF4100080218BF04200A0E18BF40F001004FF07F42E5
:2065400032EA010108BF40F00200012808BF05207047F9F70BBE6FF05E010807FAF7FFB82A
:2065600002E008C8121F08C1002AFAD170477047002001E001C1121F002AFBD1704700006B
:206580000149086070470000000000202DE9F0474FF0684202EB40030C460546B3F1654F17
:2065A0003CBF02EB4102B2F1654F80F0CD8000BFC0F3C753C1F3C7529A1A1B2A06DD10F067
:2065C000004F14BF81488248BDE8F08712F11A0F2FDA11F0004F06D010F0004F0CBF7D48B0
:2065E0007D48BDE8F08721462846F9F749FE0646FFF79CFF042808BFFFF7ADFF2846FFF7D8
:2066000095FF05462046FFF791FF04463046FFF78DFF042D18BF052D08D1042C18BF052C22
:2066200004D1002804BF0220FFF7AAFF3046BDE8F0874200B2EB410F25D910F0004F19BFF3
:20664000664F674E674F684E224685F0004415460A4680F0004110460A1A5200B2F1807F79
:206660003ED248406149DFF888A110F0004F18D04FF03F483846F9F7CBFD0746514630464B
:20668000F9F7C6FD17E011F0004F04BF00263746E2D010F0004F19BF564F574E574F584E2B
:2066A000DAE74FF07C583846F9F760FD074651463046F9F75BFD064641462846F9F7AEFDBD
:2066C0002146F9F753FD824621464046F9F7A6FD2946F9F7A0FD5146F9F7D2FD044604E04B
:2066E00021462846F9F7CCFD04460146F9F796FD80464449F9F792FD4349F9F737FD4146EF
:20670000F9F78CFD4149F9F731FD4146F9F786FD3F49F9F72BFD4146F9F780FD3D49F9F754
:2067200025FD054641462046F9F778FD2946F9F775FD3146F9F71AFD2146F9F717FD394661
:20674000BDE8F047F9F712BD4FF07F42B2EB400F28BFB2EB410F03D2BDE8F047FFF7F9BE80
:2067600040EA01035B0008BF44F0FF410AD0B2EB400F08BFB2EB410F06D125F0804024F01B
:20678000804105460C4613E7B2EB400F12BF5FEA410245F0FF4004F000413FF409AF4A007A
:2067A00092EA40033FF504AF002AACBF4FF09F464FF03E563146F9F731FD054631462046EA
:2067C000F9F72CFD044628462146F1E6DB0FC9BFDB0FC93FDB0F4940DB0F49C00000C9BF58
:2067E00022AAFDB90000C93F22AAFD390060ED3EC30ACE37000049C022AA7DBA000049401B
:2068000022AA7D3A2DAD65BD8FB8D53D0FB511BE61C84C3EA8AAAABE02040608000000008C
:206820000102030401020304060708091415467265654A6F79000000000000000000000049
:2068400000003200C8000A000500000005050505000000000000000000000000000000001B
:206860000000000000000000000001800000FF7F019CB0C4D8EC0014283C50640F00000009
:20688000FFFFFF014800000001800000FF7F019CB0C4D8EC0014283C50640F000100FFFFA4
:2068A000FF014800000001800000FF7F019CB0C4D8EC0014283C50640F000200FFFFFF0181
:2068C0004800000001800000FF7F019CB0C4D8EC0014283C50640F000300FFFFFF01480018
:2068E000000001800000FF7F019CB0C4D8EC0014283C50640F00FF00FFFFFF014800000044
:2069000001800000FF7F019CB0C4D8EC0014283C50640F00FF00FFFFFF01480000000180A2
